:020000040000FA
:020000000029D5
:040002000034003492
:0800080083120313A00003089A
:10001000A1000C180E288C1A1128132878140C1023
:0E00200013288C1213282108830020080900E1
:1002000083160313860183120313860183160313D7
:100210008801831203138801831603130E309F0095
:100220008312031341309F00831603132430980078
:100230008312031380309800831603133230990021
:10024000831203133D30900083120313C0308B00E0
:100250008316031301308C0030215F2148212C29A3
:10026000F201F101F401F601831203131F151F19A6
:1002700037291E0E8600060E8800F5000800FF30A4
:100280008E000F308100810B43298E0B412908001D
:10029000781C0800781083120313710858212C3041
:1002A000582172085821563058210A305821080028
:1002B0000000831203130C1E582999000800000047
:1002C0007508F6000530F60203186F297108303EF4
:1002D000F1007208303EF2000800F10AF201F20A61
:0E02E0007208F4000A30F40203196D29622935
:02400E003A3F37
:00000001FF
