:020000040000FA
:020000000029D5
:040002000034003492
:0800080083120313A00003089A
:10001000A1000C180E288C1A1128152878140C1021
:1000200015281A0880007914152821088300200853
:020030000900C5
:1002000083160313860183120313860183160313D7
:100210008801831203138801831603130E309F0095
:100220008312031341309F00831603132430980078
:100230008312031390309800831603133230990011
:10024000831203133D30900083120313C0308B00E0
:100250008316031321308C003121662149214F215F
:100260002C29F201F101F401F601831203131F1589
:100270001F1938291E0E8600060E8800F50008009A
:10028000FF308E000F308100810B44298E0B4229F4
:100290000800791C080000085F2179100800781C0C
:1002A000080078108312031371085F212C305F213E
:1002B00072085F2156305F210A305F21080000007C
:1002C000831203130C1E5F299900080000007508B3
:1002D000F6000530F602031876297108303EF10069
:1002E0007208303EF2000800F10AF201F20A7208C8
:0C02F000F4000A30F40203197429692993
:02400E003A3F37
:00000001FF
