:020000040000FA
:020000000029D5
:040002000034003492
:0800080083120313A00003089A
:10001000A1000C180E288C1A122816287A1C7814A5
:100020000C1016281A08F3007914162821088300EA
:04003000200809009B
:1002000083160313860183120313860183160313D7
:100210008801831203138801831603130E309F0095
:100220008312031341309F00831603132430980078
:100230008312031390309800831603133230990011
:10024000831203133D30900083120313C0308B00E0
:100250008316031321308C000030FB0033217A21F8
:100260004B2163212E29F201F101F401F6018312E1
:1002700003131F151F193A291E0E8600060E88004B
:10028000F5000800FF308E000F308100810B4629F9
:100290008E0B44290800791C08007308FB007321A9
:1002A0000A307321791056215B2108003030FB029F
:1002B000031D08007A107308FB003130FB02031D98
:1002C00008007A147814781C08007810831203133D
:1002D000710873212C3073217208732156307321F9
:1002E0000A30732108000000831203130C1E7329C7
:1002F0009900080000007508F6000530F6020318A2
:100300008A297108303EF1007208303EF200080080
:10031000F10AF201F20A7208F4000A30F402031939
:0403200088297D2982
:02400E003A3F37
:00000001FF
