:020000040000FA
:020000000029D5
:040002000034003492
:0800080083120313A00003089A
:10001000A1000C180E288C1A142818287808013E04
:100020007A1CF8000C1018281A08F3007914182804
:080030002108830020080900EB
:1002000083160313860183120313860183160313D7
:100210008801831203138801831603130E309F0095
:100220008312031341309F00831603132430980078
:100230008312031390309800831603133230990011
:10024000831203133D30900083120313C0308B00E0
:100250008316031321308C000030FB000030FC00BB
:100260000030F80037218C214F2171213229F20111
:10027000F101F401F601831203131F151F193E2922
:100280001E0E8600060E8800F5000800FF308E0066
:100290000F308100810B4A298E0B48290800791CF8
:1002A00008007308FB0085210A30852179105B2145
:1002B0006021682108004130FB02031D08007A100C
:1002C0007308FB005230FB02031D08007A147814F7
:1002D0007A1C08007308FB006430FB02031D080051
:1002E00078147808FC003330FC02031D08007810F5
:1002F00083120313710885212C3085217208852112
:10030000563085210A30852108000000831203132E
:100310000C1E85299900080000007508F6000530BC
:10032000F60203189C297108303EF1007208303E35
:10033000F2000800F10AF201F20A7208F4000A3031
:08034000F40203199A298F2928
:02400E003A3F37
:00000001FF
