:020000040000FA
:1000000083160313860183120313860183160313D9
:100010008801831203138801831603130E309F0097
:100020008312031341309F0083160313243098007A
:100030008312031380309800831603133230990023
:100040002F204E2083120313710847202C304720A5
:1000500072084720563047200A3047202028F201F6
:10006000F101F401F601831203131F151F1936283D
:100070001E0E8600060E8800F5000800FF308E0078
:100080000F308100810B42288E0B402808000000B1
:10009000831203130C1E47289900080000007508FE
:1000A000F6000530F60203185E287108303EF100B4
:1000B0007208303EF2000800F10AF201F20A7208FA
:0C00C000F4000A30F40203195C285128F7
:0400CC0000340034C8
:02400E003A3F37
:00000001FF
